{
  "contractName": "VotingPoll",
  "abi": [
    {
      "inputs": [
        {
          "internalType": "address",
          "name": "_creater",
          "type": "address"
        },
        {
          "internalType": "string",
          "name": "_title",
          "type": "string"
        },
        {
          "internalType": "string[]",
          "name": "_options",
          "type": "string[]"
        }
      ],
      "stateMutability": "nonpayable",
      "type": "constructor"
    },
    {
      "inputs": [
        {
          "internalType": "uint256",
          "name": "",
          "type": "uint256"
        }
      ],
      "name": "options",
      "outputs": [
        {
          "internalType": "string",
          "name": "",
          "type": "string"
        }
      ],
      "stateMutability": "view",
      "type": "function"
    },
    {
      "inputs": [],
      "name": "votingStatus",
      "outputs": [
        {
          "internalType": "bool",
          "name": "",
          "type": "bool"
        }
      ],
      "stateMutability": "view",
      "type": "function"
    },
    {
      "inputs": [],
      "name": "votingTitle",
      "outputs": [
        {
          "internalType": "string",
          "name": "",
          "type": "string"
        }
      ],
      "stateMutability": "view",
      "type": "function"
    },
    {
      "inputs": [],
      "name": "getOwner",
      "outputs": [
        {
          "internalType": "address",
          "name": "",
          "type": "address"
        }
      ],
      "stateMutability": "view",
      "type": "function"
    },
    {
      "inputs": [],
      "name": "getTitle",
      "outputs": [
        {
          "internalType": "string",
          "name": "",
          "type": "string"
        }
      ],
      "stateMutability": "view",
      "type": "function"
    },
    {
      "inputs": [],
      "name": "getOptions",
      "outputs": [
        {
          "internalType": "string[]",
          "name": "",
          "type": "string[]"
        }
      ],
      "stateMutability": "view",
      "type": "function"
    },
    {
      "inputs": [],
      "name": "getStatus",
      "outputs": [
        {
          "internalType": "bool",
          "name": "",
          "type": "bool"
        }
      ],
      "stateMutability": "view",
      "type": "function"
    },
    {
      "inputs": [],
      "name": "getOptionCounts",
      "outputs": [
        {
          "internalType": "uint256",
          "name": "",
          "type": "uint256"
        }
      ],
      "stateMutability": "view",
      "type": "function"
    },
    {
      "inputs": [
        {
          "internalType": "uint256",
          "name": "_id",
          "type": "uint256"
        }
      ],
      "name": "getResult",
      "outputs": [
        {
          "internalType": "uint256",
          "name": "",
          "type": "uint256"
        }
      ],
      "stateMutability": "view",
      "type": "function"
    },
    {
      "inputs": [
        {
          "internalType": "address",
          "name": "_from",
          "type": "address"
        }
      ],
      "name": "getMultiCheck",
      "outputs": [
        {
          "internalType": "uint256",
          "name": "",
          "type": "uint256"
        }
      ],
      "stateMutability": "view",
      "type": "function"
    },
    {
      "inputs": [],
      "name": "pauseVoting",
      "outputs": [],
      "stateMutability": "nonpayable",
      "type": "function"
    },
    {
      "inputs": [
        {
          "internalType": "uint256",
          "name": "_value",
          "type": "uint256"
        }
      ],
      "name": "voting",
      "outputs": [],
      "stateMutability": "nonpayable",
      "type": "function"
    }
  ],
  "bytecode": "0x60806040523480156200001157600080fd5b5060405162001491380380620014918339818101604052810190620000379190620003b6565b826000806101000a81548173ffffffffffffffffffffffffffffffffffffffff021916908373ffffffffffffffffffffffffffffffffffffffff16021790555081600190805190602001906200008f929190620000cd565b508060029080519060200190620000a89291906200015e565b506001600360006101000a81548160ff02191690831515021790555050505062000656565b828054620000db9062000548565b90600052602060002090601f016020900481019282620000ff57600085556200014b565b82601f106200011a57805160ff19168380011785556200014b565b828001600101855582156200014b579182015b828111156200014a5782518255916020019190600101906200012d565b5b5090506200015a9190620001c5565b5090565b828054828255906000526020600020908101928215620001b2579160200282015b82811115620001b1578251829080519060200190620001a0929190620000cd565b50916020019190600101906200017f565b5b509050620001c19190620001e4565b5090565b5b80821115620001e0576000816000905550600101620001c6565b5090565b5b80821115620002085760008181620001fe91906200020c565b50600101620001e5565b5090565b5080546200021a9062000548565b6000825580601f106200022e57506200024f565b601f0160209004906000526020600020908101906200024e9190620001c5565b5b50565b600062000269620002638462000479565b62000450565b905080838252602082019050828560208602820111156200028f576200028e62000617565b5b60005b85811015620002e457815167ffffffffffffffff811115620002b957620002b862000612565b5b808601620002c8898262000383565b8552602085019450602084019350505060018101905062000292565b5050509392505050565b600062000305620002ff84620004a8565b62000450565b9050828152602081018484840111156200032457620003236200061c565b5b6200033184828562000512565b509392505050565b6000815190506200034a816200063c565b92915050565b600082601f83011262000368576200036762000612565b5b81516200037a84826020860162000252565b91505092915050565b600082601f8301126200039b576200039a62000612565b5b8151620003ad848260208601620002ee565b91505092915050565b600080600060608486031215620003d257620003d162000626565b5b6000620003e28682870162000339565b935050602084015167ffffffffffffffff81111562000406576200040562000621565b5b620004148682870162000383565b925050604084015167ffffffffffffffff81111562000438576200043762000621565b5b620004468682870162000350565b9150509250925092565b60006200045c6200046f565b90506200046a82826200057e565b919050565b6000604051905090565b600067ffffffffffffffff821115620004975762000496620005e3565b5b602082029050602081019050919050565b600067ffffffffffffffff821115620004c657620004c5620005e3565b5b620004d1826200062b565b9050602081019050919050565b6000620004eb82620004f2565b9050919050565b600073ffffffffffffffffffffffffffffffffffffffff82169050919050565b60005b838110156200053257808201518184015260208101905062000515565b8381111562000542576000848401525b50505050565b600060028204905060018216806200056157607f821691505b60208210811415620005785762000577620005b4565b5b50919050565b62000589826200062b565b810181811067ffffffffffffffff82111715620005ab57620005aa620005e3565b5b80604052505050565b7f4e487b7100000000000000000000000000000000000000000000000000000000600052602260045260246000fd5b7f4e487b7100000000000000000000000000000000000000000000000000000000600052604160045260246000fd5b600080fd5b600080fd5b600080fd5b600080fd5b600080fd5b6000601f19601f8301169050919050565b6200064781620004de565b81146200065357600080fd5b50565b610e2b80620006666000396000f3fe608060405234801561001057600080fd5b50600436106100b45760003560e01c8063995e433911610071578063995e433914610191578063cc2ee196146101c1578063cca7a11c146101df578063f3cdcd1e146101fd578063fd4a77f114610207578063ff3c1a8f14610223576100b4565b806319f41a40146100b9578063409e2205146100d75780634e69d56014610107578063711e6eed14610125578063755df8cb14610143578063893d20e814610173575b600080fd5b6100c1610241565b6040516100ce9190610a7b565b60405180910390f35b6100f160048036038101906100ec919061085d565b610254565b6040516100fe9190610a96565b60405180910390f35b61010f610300565b60405161011c9190610a7b565b60405180910390f35b61012d610317565b60405161013a9190610a96565b60405180910390f35b61015d60048036038101906101589190610830565b6103a5565b60405161016a9190610b38565b60405180910390f35b61017b6103ee565b6040516101889190610a3e565b60405180910390f35b6101ab60048036038101906101a6919061085d565b610417565b6040516101b89190610b38565b60405180910390f35b6101c9610434565b6040516101d69190610a59565b60405180910390f35b6101e761050d565b6040516101f49190610b38565b60405180910390f35b61020561051a565b005b610221600480360381019061021c919061085d565b61061b565b005b61022b610774565b6040516102389190610a96565b60405180910390f35b600360009054906101000a900460ff1681565b6002818154811061026457600080fd5b90600052602060002001600091509050805461027f90610c34565b80601f01602080910402602001604051908101604052809291908181526020018280546102ab90610c34565b80156102f85780601f106102cd576101008083540402835291602001916102f8565b820191906000526020600020905b8154815290600101906020018083116102db57829003601f168201915b505050505081565b6000600360009054906101000a900460ff16905090565b6001805461032490610c34565b80601f016020809104026020016040519081016040528092919081815260200182805461035090610c34565b801561039d5780601f106103725761010080835404028352916020019161039d565b820191906000526020600020905b81548152906001019060200180831161038057829003601f168201915b505050505081565b6000600460008373ffffffffffffffffffffffffffffffffffffffff1673ffffffffffffffffffffffffffffffffffffffff168152602001908152602001600020549050919050565b60008060009054906101000a900473ffffffffffffffffffffffffffffffffffffffff16905090565b600060056000838152602001908152602001600020549050919050565b60606002805480602002602001604051908101604052809291908181526020016000905b8282101561050457838290600052602060002001805461047790610c34565b80601f01602080910402602001604051908101604052809291908181526020018280546104a390610c34565b80156104f05780601f106104c5576101008083540402835291602001916104f0565b820191906000526020600020905b8154815290600101906020018083116104d357829003601f168201915b505050505081526020019060010190610458565b50505050905090565b6000600280549050905090565b60008054906101000a900473ffffffffffffffffffffffffffffffffffffffff1673ffffffffffffffffffffffffffffffffffffffff163373ffffffffffffffffffffffffffffffffffffffff16146105a8576040517f08c379a000000000000000000000000000000000000000000000000000000000815260040161059f90610af8565b60405180910390fd5b60011515600360009054906101000a900460ff161515146105fe576040517f08c379a00000000000000000000000000000000000000000000000000000000081526004016105f590610ad8565b60405180910390fd5b6000600360006101000a81548160ff021916908315150217905550565b6000600460003373ffffffffffffffffffffffffffffffffffffffff1673ffffffffffffffffffffffffffffffffffffffff168152602001908152602001600020541461069d576040517f08c379a000000000000000000000000000000000000000000000000000000000815260040161069490610ab8565b60405180910390fd5b60011515600360009054906101000a900460ff161515146106f3576040517f08c379a00000000000000000000000000000000000000000000000000000000081526004016106ea90610b18565b60405180910390fd5b600460003373ffffffffffffffffffffffffffffffffffffffff1673ffffffffffffffffffffffffffffffffffffffff168152602001908152602001600020600081548092919061074390610c66565b919050555060056000828152602001908152602001600020600081548092919061076c90610c66565b919050555050565b60606001805461078390610c34565b80601f01602080910402602001604051908101604052809291908181526020018280546107af90610c34565b80156107fc5780601f106107d1576101008083540402835291602001916107fc565b820191906000526020600020905b8154815290600101906020018083116107df57829003601f168201915b5050505050905090565b60008135905061081581610dc7565b92915050565b60008135905061082a81610dde565b92915050565b60006020828403121561084657610845610d0d565b5b600061085484828501610806565b91505092915050565b60006020828403121561087357610872610d0d565b5b60006108818482850161081b565b91505092915050565b60006108968383610931565b905092915050565b6108a781610bb9565b82525050565b60006108b882610b63565b6108c28185610b86565b9350836020820285016108d485610b53565b8060005b8581101561091057848403895281516108f1858261088a565b94506108fc83610b79565b925060208a019950506001810190506108d8565b50829750879550505050505092915050565b61092b81610bcb565b82525050565b600061093c82610b6e565b6109468185610b97565b9350610956818560208601610c01565b61095f81610d12565b840191505092915050565b600061097582610b6e565b61097f8185610ba8565b935061098f818560208601610c01565b61099881610d12565b840191505092915050565b60006109b0601c83610ba8565b91506109bb82610d23565b602082019050919050565b60006109d3602083610ba8565b91506109de82610d4c565b602082019050919050565b60006109f6601183610ba8565b9150610a0182610d75565b602082019050919050565b6000610a19601e83610ba8565b9150610a2482610d9e565b602082019050919050565b610a3881610bf7565b82525050565b6000602082019050610a53600083018461089e565b92915050565b60006020820190508181036000830152610a7381846108ad565b905092915050565b6000602082019050610a906000830184610922565b92915050565b60006020820190508181036000830152610ab0818461096a565b905092915050565b60006020820190508181036000830152610ad1816109a3565b9050919050565b60006020820190508181036000830152610af1816109c6565b9050919050565b60006020820190508181036000830152610b11816109e9565b9050919050565b60006020820190508181036000830152610b3181610a0c565b9050919050565b6000602082019050610b4d6000830184610a2f565b92915050565b6000819050602082019050919050565b600081519050919050565b600081519050919050565b6000602082019050919050565b600082825260208201905092915050565b600082825260208201905092915050565b600082825260208201905092915050565b6000610bc482610bd7565b9050919050565b60008115159050919050565b600073ffffffffffffffffffffffffffffffffffffffff82169050919050565b6000819050919050565b60005b83811015610c1f578082015181840152602081019050610c04565b83811115610c2e576000848401525b50505050565b60006002820490506001821680610c4c57607f821691505b60208210811415610c6057610c5f610cde565b5b50919050565b6000610c7182610bf7565b91507fffffffffffffffffffffffffffffffffffffffffffffffffffffffffffffffff821415610ca457610ca3610caf565b5b600182019050919050565b7f4e487b7100000000000000000000000000000000000000000000000000000000600052601160045260246000fd5b7f4e487b7100000000000000000000000000000000000000000000000000000000600052602260045260246000fd5b600080fd5b6000601f19601f8301169050919050565b7f43616e2774206a6f696e20747769636520696e206f6e6520706f6c6c00000000600082015250565b7f5468697320766f74696e67207761732066696e6973686564206265666f72652e600082015250565b7f596f75277265206e6f74206f776e657221000000000000000000000000000000600082015250565b7f5468697320766f746520697320616c72656164792066696e69736865642e0000600082015250565b610dd081610bb9565b8114610ddb57600080fd5b50565b610de781610bf7565b8114610df257600080fd5b5056fea264697066735822122049f72154bfb6bf617e26840b3ec28ea7b6b906d89d1843f86e598b7c64eba8cb64736f6c63430008070033",
  "immutableReferences": {},
  "source": "// SPDX-License-Identifier: MIT\n\npragma solidity ^0.8.4;\npragma experimental ABIEncoderV2;\n\nimport \"./VotingFactory.sol\";\n\ncontract VotingPoll {\n\n    address private owner;\n    string public votingTitle;\n    string[] public options;\n    bool public votingStatus;\n    mapping(address => uint) multipleCheck;\n    mapping(uint => uint) votingResult;\n\n    constructor (address _creater, string memory _title, string[] memory _options) {\n        owner = _creater;\n        votingTitle = _title;\n        options = _options;\n        votingStatus = true;\n    }\n\n    function getOwner() external view returns(address) {\n        return owner;\n    }\n\n    function getTitle() external view returns(string memory) {\n        return votingTitle;\n    }\n\n    function getOptions() external view returns(string[] memory) {\n        return options;\n    }\n    \n    function getStatus() external view returns(bool) {\n        return votingStatus;\n    }\n\n    function getOptionCounts() external view returns(uint) {\n        return options.length;\n    }\n\n    function getResult(uint _id) external view returns(uint) {\n        return votingResult[_id];\n    }\n\n    function getMultiCheck(address _from) external view returns(uint) {\n        return multipleCheck[_from];\n    }\n\n    function pauseVoting () external {\n        require(msg.sender == owner, \"You're not owner!\");\n        require(votingStatus == true, \"This voting was finished before.\");\n        votingStatus = false;\n    }\n\n    function voting(uint _value) external {\n        require(multipleCheck[msg.sender] == 0 , \"Can't join twice in one poll\");\n        require(votingStatus == true, \"This vote is already finished.\");\n        multipleCheck[msg.sender] ++;\n        votingResult[_value]++;\n    }\n}",
  "sourcePath": "E:\\git\\sugarlandContracts\\voting-contract\\contracts\\VotingPoll.sol",
  "compiler": {
    "name": "solc",
    "version": "0.8.7+commit.e28d00a7.Emscripten.clang"
  },
  "schemaVersion": "3.4.4",
  "updatedAt": "2022-06-12T15:31:30.802Z",
  "devdoc": {
    "kind": "dev",
    "methods": {},
    "version": 1
  },
  "userdoc": {
    "kind": "user",
    "methods": {},
    "version": 1
  }
}